{
  "_format": "hh-sol-artifact-1",
  "contractName": "Tracing",
  "sourceName": "contracts/Tracing.sol",
  "abi": [
    {
      "inputs": [],
      "stateMutability": "nonpayable",
      "type": "constructor"
    },
    {
      "inputs": [
        {
          "internalType": "uint256",
          "name": "id",
          "type": "uint256"
        }
      ],
      "name": "IdAlreadyUsed",
      "type": "error"
    },
    {
      "inputs": [
        {
          "internalType": "address",
          "name": "provider",
          "type": "address"
        },
        {
          "internalType": "uint256",
          "name": "id",
          "type": "uint256"
        }
      ],
      "name": "IdNotExist",
      "type": "error"
    },
    {
      "inputs": [],
      "name": "InformationIsEmpty",
      "type": "error"
    },
    {
      "inputs": [
        {
          "internalType": "address",
          "name": "provider",
          "type": "address"
        }
      ],
      "name": "ProviderNotAuthorized",
      "type": "error"
    },
    {
      "inputs": [],
      "name": "UnequalLength",
      "type": "error"
    },
    {
      "inputs": [
        {
          "internalType": "address",
          "name": "provider",
          "type": "address"
        },
        {
          "internalType": "uint256",
          "name": "id",
          "type": "uint256"
        }
      ],
      "name": "ValidationFail",
      "type": "error"
    },
    {
      "anonymous": false,
      "inputs": [
        {
          "indexed": false,
          "internalType": "address",
          "name": "provider",
          "type": "address"
        }
      ],
      "name": "Authorized",
      "type": "event"
    },
    {
      "anonymous": false,
      "inputs": [
        {
          "indexed": false,
          "internalType": "address",
          "name": "provider",
          "type": "address"
        },
        {
          "indexed": false,
          "internalType": "uint256",
          "name": "id",
          "type": "uint256"
        }
      ],
      "name": "ProductAdded",
      "type": "event"
    },
    {
      "inputs": [
        {
          "internalType": "uint256",
          "name": "id",
          "type": "uint256"
        },
        {
          "internalType": "string",
          "name": "_name",
          "type": "string"
        },
        {
          "internalType": "string",
          "name": "_time",
          "type": "string"
        },
        {
          "internalType": "string",
          "name": "_location",
          "type": "string"
        },
        {
          "internalType": "address[]",
          "name": "providers",
          "type": "address[]"
        },
        {
          "internalType": "uint256[]",
          "name": "ids",
          "type": "uint256[]"
        },
        {
          "internalType": "bytes[]",
          "name": "signatures",
          "type": "bytes[]"
        }
      ],
      "name": "addProduct",
      "outputs": [],
      "stateMutability": "nonpayable",
      "type": "function"
    },
    {
      "inputs": [
        {
          "internalType": "address",
          "name": "",
          "type": "address"
        }
      ],
      "name": "authority",
      "outputs": [
        {
          "internalType": "bool",
          "name": "",
          "type": "bool"
        }
      ],
      "stateMutability": "view",
      "type": "function"
    },
    {
      "inputs": [
        {
          "internalType": "address",
          "name": "provider",
          "type": "address"
        }
      ],
      "name": "authorize",
      "outputs": [],
      "stateMutability": "nonpayable",
      "type": "function"
    },
    {
      "inputs": [],
      "name": "creator",
      "outputs": [
        {
          "internalType": "address",
          "name": "",
          "type": "address"
        }
      ],
      "stateMutability": "view",
      "type": "function"
    },
    {
      "inputs": [
        {
          "internalType": "address",
          "name": "provider",
          "type": "address"
        }
      ],
      "name": "isAuthorized",
      "outputs": [
        {
          "internalType": "bool",
          "name": "",
          "type": "bool"
        }
      ],
      "stateMutability": "view",
      "type": "function"
    },
    {
      "inputs": [
        {
          "internalType": "address",
          "name": "",
          "type": "address"
        },
        {
          "internalType": "uint256",
          "name": "",
          "type": "uint256"
        }
      ],
      "name": "products",
      "outputs": [
        {
          "internalType": "string",
          "name": "name",
          "type": "string"
        },
        {
          "internalType": "string",
          "name": "time",
          "type": "string"
        },
        {
          "internalType": "string",
          "name": "location",
          "type": "string"
        }
      ],
      "stateMutability": "view",
      "type": "function"
    },
    {
      "inputs": [
        {
          "internalType": "address",
          "name": "provider",
          "type": "address"
        },
        {
          "internalType": "uint256",
          "name": "id",
          "type": "uint256"
        }
      ],
      "name": "traceProduct",
      "outputs": [
        {
          "components": [
            {
              "internalType": "string",
              "name": "name",
              "type": "string"
            },
            {
              "internalType": "string",
              "name": "time",
              "type": "string"
            },
            {
              "internalType": "string",
              "name": "location",
              "type": "string"
            },
            {
              "components": [
                {
                  "internalType": "address",
                  "name": "provider",
                  "type": "address"
                },
                {
                  "internalType": "uint256",
                  "name": "id",
                  "type": "uint256"
                }
              ],
              "internalType": "struct Tracing.Source[]",
              "name": "sources",
              "type": "tuple[]"
            }
          ],
          "internalType": "struct Tracing.Product",
          "name": "product",
          "type": "tuple"
        }
      ],
      "stateMutability": "view",
      "type": "function"
    }
  ],
  "bytecode": "0x608060405234801561001057600080fd5b50336000806101000a81548173ffffffffffffffffffffffffffffffffffffffff021916908373ffffffffffffffffffffffffffffffffffffffff160217905550612248806100606000396000f3fe608060405234801561001057600080fd5b506004361061007d5760003560e01c8063a9c354e11161005b578063a9c354e114610100578063b6a5d7de1461011c578063fc64094914610138578063fe9fbb801461016a5761007d565b806302d05d3f14610082578063405d6c80146100a05780637104dd03146100d0575b600080fd5b61008a61019a565b604051610097919061121e565b60405180910390f35b6100ba60048036038101906100b591906112af565b6101be565b6040516100c791906114f3565b60405180910390f35b6100ea60048036038101906100e59190611515565b6105d2565b6040516100f7919061155d565b60405180910390f35b61011a60048036038101906101159190611974565b6105f2565b005b61013660048036038101906101319190611515565b610d27565b005b610152600480360381019061014d91906112af565b610e46565b60405161016193929190611b15565b60405180910390f35b610184600480360381019061017f9190611515565b611015565b604051610191919061155d565b60405180910390f35b60008054906101000a900473ffffffffffffffffffffffffffffffffffffffff1681565b6101c66111b5565b600160008473ffffffffffffffffffffffffffffffffffffffff1673ffffffffffffffffffffffffffffffffffffffff16815260200190815260200160002060009054906101000a900460ff1661025457826040517f5420d85800000000000000000000000000000000000000000000000000000000815260040161024b919061121e565b60405180910390fd5b6000600260008573ffffffffffffffffffffffffffffffffffffffff1673ffffffffffffffffffffffffffffffffffffffff168152602001908152602001600020600084815260200190815260200160002060000180546102b490611b90565b9050036102fa5782826040517f87f2d2070000000000000000000000000000000000000000000000000000000081526004016102f1929190611bd0565b60405180910390fd5b600260008473ffffffffffffffffffffffffffffffffffffffff1673ffffffffffffffffffffffffffffffffffffffff168152602001908152602001600020600083815260200190815260200160002060405180608001604052908160008201805461036590611b90565b80601f016020809104026020016040519081016040528092919081815260200182805461039190611b90565b80156103de5780601f106103b3576101008083540402835291602001916103de565b820191906000526020600020905b8154815290600101906020018083116103c157829003601f168201915b505050505081526020016001820180546103f790611b90565b80601f016020809104026020016040519081016040528092919081815260200182805461042390611b90565b80156104705780601f1061044557610100808354040283529160200191610470565b820191906000526020600020905b81548152906001019060200180831161045357829003601f168201915b5050505050815260200160028201805461048990611b90565b80601f01602080910402602001604051908101604052809291908181526020018280546104b590611b90565b80156105025780601f106104d757610100808354040283529160200191610502565b820191906000526020600020905b8154815290600101906020018083116104e557829003601f168201915b5050505050815260200160038201805480602002602001604051908101604052809291908181526020016000905b828210156105c257838290600052602060002090600202016040518060400160405290816000820160009054906101000a900473ffffffffffffffffffffffffffffffffffffffff1673ffffffffffffffffffffffffffffffffffffffff1673ffffffffffffffffffffffffffffffffffffffff16815260200160018201548152505081526020019060010190610530565b5050505081525050905092915050565b60016020528060005260406000206000915054906101000a900460ff1681565b600160003373ffffffffffffffffffffffffffffffffffffffff1673ffffffffffffffffffffffffffffffffffffffff16815260200190815260200160002060009054906101000a900460ff1661067e576040517f08c379a000000000000000000000000000000000000000000000000000000000815260040161067590611c6b565b60405180910390fd5b6000600260003373ffffffffffffffffffffffffffffffffffffffff1673ffffffffffffffffffffffffffffffffffffffff16815260200190815260200160002060008c815260200190815260200160002060000180546106de90611b90565b90501461072257896040517f285373ed0000000000000000000000000000000000000000000000000000000081526004016107199190611c8b565b60405180910390fd5b60008989905014806107375750600087879050145b806107455750600085859050145b1561077c576040517f02bd52b500000000000000000000000000000000000000000000000000000000815260040160405180910390fd5b600081519050808451141580610793575080835114155b156107ca576040517f1c091df100000000000000000000000000000000000000000000000000000000815260040160405180910390fd5b60005b81811015610bb757600160008683815181106107ec576107eb611ca6565b5b602002602001015173ffffffffffffffffffffffffffffffffffffffff1673ffffffffffffffffffffffffffffffffffffffff16815260200190815260200160002060009054906101000a900460ff166108975784818151811061085357610852611ca6565b5b60200260200101516040517f5420d85800000000000000000000000000000000000000000000000000000000815260040161088e919061121e565b60405180910390fd5b6000600260008784815181106108b0576108af611ca6565b5b602002602001015173ffffffffffffffffffffffffffffffffffffffff1673ffffffffffffffffffffffffffffffffffffffff168152602001908152602001600020600086848151811061090757610906611ca6565b5b60200260200101518152602001908152602001600020600001805461092b90611b90565b9050036109a55784818151811061094557610944611ca6565b5b60200260200101518482815181106109605761095f611ca6565b5b60200260200101516040517f87f2d20700000000000000000000000000000000000000000000000000000000815260040161099c929190611bd0565b60405180910390fd5b6109ff8482815181106109bb576109ba611ca6565b5b6020026020010151338784815181106109d7576109d6611ca6565b5b60200260200101518685815181106109f2576109f1611ca6565b5b602002602001015161106b565b610a7657848181518110610a1657610a15611ca6565b5b6020026020010151848281518110610a3157610a30611ca6565b5b60200260200101516040517fbbc74007000000000000000000000000000000000000000000000000000000008152600401610a6d929190611bd0565b60405180910390fd5b600260003373ffffffffffffffffffffffffffffffffffffffff1673ffffffffffffffffffffffffffffffffffffffff16815260200190815260200160002060008d81526020019081526020016000206003016040518060400160405280878481518110610ae757610ae6611ca6565b5b602002602001015173ffffffffffffffffffffffffffffffffffffffff168152602001868481518110610b1d57610b1c611ca6565b5b6020026020010151815250908060018154018082558091505060019003906000526020600020906002020160009091909190915060008201518160000160006101000a81548173ffffffffffffffffffffffffffffffffffffffff021916908373ffffffffffffffffffffffffffffffffffffffff1602179055506020820151816001015550508080610baf90611d04565b9150506107cd565b508989600260003373ffffffffffffffffffffffffffffffffffffffff1673ffffffffffffffffffffffffffffffffffffffff16815260200190815260200160002060008e81526020019081526020016000206000019182610c1a929190611f03565b508787600260003373ffffffffffffffffffffffffffffffffffffffff1673ffffffffffffffffffffffffffffffffffffffff16815260200190815260200160002060008e81526020019081526020016000206001019182610c7d929190611f03565b508585600260003373ffffffffffffffffffffffffffffffffffffffff1673ffffffffffffffffffffffffffffffffffffffff16815260200190815260200160002060008e81526020019081526020016000206002019182610ce0929190611f03565b507f06d195a39cae44c0b031a2dc9a496102b4bd20ce290705703921389588231858338c604051610d12929190611bd0565b60405180910390a15050505050505050505050565b60008054906101000a900473ffffffffffffffffffffffffffffffffffffffff1673ffffffffffffffffffffffffffffffffffffffff163373ffffffffffffffffffffffffffffffffffffffff1614610db5576040517f08c379a0000000000000000000000000000000000000000000000000000000008152600401610dac90612045565b60405180910390fd5b60018060008373ffffffffffffffffffffffffffffffffffffffff1673ffffffffffffffffffffffffffffffffffffffff16815260200190815260200160002060006101000a81548160ff0219169083151502179055507fdc84e3a4c83602050e3865df792a4e6800211a79ac60db94e703a820ce89292481604051610e3b919061121e565b60405180910390a150565b600260205281600052604060002060205280600052604060002060009150915050806000018054610e7690611b90565b80601f0160208091040260200160405190810160405280929190818152602001828054610ea290611b90565b8015610eef5780601f10610ec457610100808354040283529160200191610eef565b820191906000526020600020905b815481529060010190602001808311610ed257829003601f168201915b505050505090806001018054610f0490611b90565b80601f0160208091040260200160405190810160405280929190818152602001828054610f3090611b90565b8015610f7d5780601f10610f5257610100808354040283529160200191610f7d565b820191906000526020600020905b815481529060010190602001808311610f6057829003601f168201915b505050505090806002018054610f9290611b90565b80601f0160208091040260200160405190810160405280929190818152602001828054610fbe90611b90565b801561100b5780601f10610fe05761010080835404028352916020019161100b565b820191906000526020600020905b815481529060010190602001808311610fee57829003601f168201915b5050505050905083565b6000600160008373ffffffffffffffffffffffffffffffffffffffff1673ffffffffffffffffffffffffffffffffffffffff16815260200190815260200160002060009054906101000a900460ff169050919050565b60008061109f86866040516020016110849291906120ce565b604051602081830303815290604052805190602001206110e4565b90508373ffffffffffffffffffffffffffffffffffffffff166110c28285611114565b73ffffffffffffffffffffffffffffffffffffffff1614915050949350505050565b6000816040516020016110f7919061217c565b604051602081830303815290604052805190602001209050919050565b60008060008061112385611183565b9250925092506001868484846040516000815260200160405260405161114c94939291906121cd565b6020604051602081039080840390855afa15801561116e573d6000803e3d6000fd5b50505060206040510351935050505092915050565b6000806000604184511461119657600080fd5b6020840151915060408401519050606084015160001a92509193909250565b6040518060800160405280606081526020016060815260200160608152602001606081525090565b600073ffffffffffffffffffffffffffffffffffffffff82169050919050565b6000611208826111dd565b9050919050565b611218816111fd565b82525050565b6000602082019050611233600083018461120f565b92915050565b6000604051905090565b600080fd5b600080fd5b611256816111fd565b811461126157600080fd5b50565b6000813590506112738161124d565b92915050565b6000819050919050565b61128c81611279565b811461129757600080fd5b50565b6000813590506112a981611283565b92915050565b600080604083850312156112c6576112c5611243565b5b60006112d485828601611264565b92505060206112e58582860161129a565b9150509250929050565b600081519050919050565b600082825260208201905092915050565b60005b8381101561132957808201518184015260208101905061130e565b60008484015250505050565b6000601f19601f8301169050919050565b6000611351826112ef565b61135b81856112fa565b935061136b81856020860161130b565b61137481611335565b840191505092915050565b600081519050919050565b600082825260208201905092915050565b6000819050602082019050919050565b6113b4816111fd565b82525050565b6113c381611279565b82525050565b6040820160008201516113df60008501826113ab565b5060208201516113f260208501826113ba565b50505050565b600061140483836113c9565b60408301905092915050565b6000602082019050919050565b60006114288261137f565b611432818561138a565b935061143d8361139b565b8060005b8381101561146e57815161145588826113f8565b975061146083611410565b925050600181019050611441565b5085935050505092915050565b600060808301600083015184820360008601526114988282611346565b915050602083015184820360208601526114b28282611346565b915050604083015184820360408601526114cc8282611346565b915050606083015184820360608601526114e6828261141d565b9150508091505092915050565b6000602082019050818103600083015261150d818461147b565b905092915050565b60006020828403121561152b5761152a611243565b5b600061153984828501611264565b91505092915050565b60008115159050919050565b61155781611542565b82525050565b6000602082019050611572600083018461154e565b92915050565b600080fd5b600080fd5b600080fd5b60008083601f84011261159d5761159c611578565b5b8235905067ffffffffffffffff8111156115ba576115b961157d565b5b6020830191508360018202830111156115d6576115d5611582565b5b9250929050565b7f4e487b7100000000000000000000000000000000000000000000000000000000600052604160045260246000fd5b61161582611335565b810181811067ffffffffffffffff82111715611634576116336115dd565b5b80604052505050565b6000611647611239565b9050611653828261160c565b919050565b600067ffffffffffffffff821115611673576116726115dd565b5b602082029050602081019050919050565b600061169761169284611658565b61163d565b905080838252602082019050602084028301858111156116ba576116b9611582565b5b835b818110156116e357806116cf8882611264565b8452602084019350506020810190506116bc565b5050509392505050565b600082601f83011261170257611701611578565b5b8135611712848260208601611684565b91505092915050565b600067ffffffffffffffff821115611736576117356115dd565b5b602082029050602081019050919050565b600061175a6117558461171b565b61163d565b9050808382526020820190506020840283018581111561177d5761177c611582565b5b835b818110156117a65780611792888261129a565b84526020840193505060208101905061177f565b5050509392505050565b600082601f8301126117c5576117c4611578565b5b81356117d5848260208601611747565b91505092915050565b600067ffffffffffffffff8211156117f9576117f86115dd565b5b602082029050602081019050919050565b600080fd5b600067ffffffffffffffff82111561182a576118296115dd565b5b61183382611335565b9050602081019050919050565b82818337600083830152505050565b600061186261185d8461180f565b61163d565b90508281526020810184848401111561187e5761187d61180a565b5b611889848285611840565b509392505050565b600082601f8301126118a6576118a5611578565b5b81356118b684826020860161184f565b91505092915050565b60006118d26118cd846117de565b61163d565b905080838252602082019050602084028301858111156118f5576118f4611582565b5b835b8181101561193c57803567ffffffffffffffff81111561191a57611919611578565b5b8086016119278982611891565b855260208501945050506020810190506118f7565b5050509392505050565b600082601f83011261195b5761195a611578565b5b813561196b8482602086016118bf565b91505092915050565b60008060008060008060008060008060e08b8d03121561199757611996611243565b5b60006119a58d828e0161129a565b9a505060208b013567ffffffffffffffff8111156119c6576119c5611248565b5b6119d28d828e01611587565b995099505060408b013567ffffffffffffffff8111156119f5576119f4611248565b5b611a018d828e01611587565b975097505060608b013567ffffffffffffffff811115611a2457611a23611248565b5b611a308d828e01611587565b955095505060808b013567ffffffffffffffff811115611a5357611a52611248565b5b611a5f8d828e016116ed565b93505060a08b013567ffffffffffffffff811115611a8057611a7f611248565b5b611a8c8d828e016117b0565b92505060c08b013567ffffffffffffffff811115611aad57611aac611248565b5b611ab98d828e01611946565b9150509295989b9194979a5092959850565b600082825260208201905092915050565b6000611ae7826112ef565b611af18185611acb565b9350611b0181856020860161130b565b611b0a81611335565b840191505092915050565b60006060820190508181036000830152611b2f8186611adc565b90508181036020830152611b438185611adc565b90508181036040830152611b578184611adc565b9050949350505050565b7f4e487b7100000000000000000000000000000000000000000000000000000000600052602260045260246000fd5b60006002820490506001821680611ba857607f821691505b602082108103611bbb57611bba611b61565b5b50919050565b611bca81611279565b82525050565b6000604082019050611be5600083018561120f565b611bf26020830184611bc1565b9392505050565b7f596f7520617265206e6f7420617574686f72697a656420746f2063616c6c207460008201527f6869732066756e6374696f6e2e00000000000000000000000000000000000000602082015250565b6000611c55602d83611acb565b9150611c6082611bf9565b604082019050919050565b60006020820190508181036000830152611c8481611c48565b9050919050565b6000602082019050611ca06000830184611bc1565b92915050565b7f4e487b7100000000000000000000000000000000000000000000000000000000600052603260045260246000fd5b7f4e487b7100000000000000000000000000000000000000000000000000000000600052601160045260246000fd5b6000611d0f82611279565b91507fffffffffffffffffffffffffffffffffffffffffffffffffffffffffffffffff8203611d4157611d40611cd5565b5b600182019050919050565b600082905092915050565b60008190508160005260206000209050919050565b60006020601f8301049050919050565b600082821b905092915050565b600060088302611db97fffffffffffffffffffffffffffffffffffffffffffffffffffffffffffffffff82611d7c565b611dc38683611d7c565b95508019841693508086168417925050509392505050565b6000819050919050565b6000611e00611dfb611df684611279565b611ddb565b611279565b9050919050565b6000819050919050565b611e1a83611de5565b611e2e611e2682611e07565b848454611d89565b825550505050565b600090565b611e43611e36565b611e4e818484611e11565b505050565b5b81811015611e7257611e67600082611e3b565b600181019050611e54565b5050565b601f821115611eb757611e8881611d57565b611e9184611d6c565b81016020851015611ea0578190505b611eb4611eac85611d6c565b830182611e53565b50505b505050565b600082821c905092915050565b6000611eda60001984600802611ebc565b1980831691505092915050565b6000611ef38383611ec9565b9150826002028217905092915050565b611f0d8383611d4c565b67ffffffffffffffff811115611f2657611f256115dd565b5b611f308254611b90565b611f3b828285611e76565b6000601f831160018114611f6a5760008415611f58578287013590505b611f628582611ee7565b865550611fca565b601f198416611f7886611d57565b60005b82811015611fa057848901358255600182019150602085019450602081019050611f7b565b86831015611fbd5784890135611fb9601f891682611ec9565b8355505b6001600288020188555050505b50505050505050565b7f4f6e6c79207468652063726561746f722063616e2063616c6c2074686973206660008201527f756e6374696f6e2e000000000000000000000000000000000000000000000000602082015250565b600061202f602883611acb565b915061203a82611fd3565b604082019050919050565b6000602082019050818103600083015261205e81612022565b9050919050565b6000819050919050565b61208061207b82611279565b612065565b82525050565b60008160601b9050919050565b600061209e82612086565b9050919050565b60006120b082612093565b9050919050565b6120c86120c3826111fd565b6120a5565b82525050565b60006120da828561206f565b6020820191506120ea82846120b7565b6014820191508190509392505050565b600081905092915050565b7f19457468657265756d205369676e6564204d6573736167653a0a333200000000600082015250565b600061213b601c836120fa565b915061214682612105565b601c82019050919050565b6000819050919050565b6000819050919050565b61217661217182612151565b61215b565b82525050565b60006121878261212e565b91506121938284612165565b60208201915081905092915050565b6121ab81612151565b82525050565b600060ff82169050919050565b6121c7816121b1565b82525050565b60006080820190506121e260008301876121a2565b6121ef60208301866121be565b6121fc60408301856121a2565b61220960608301846121a2565b9594505050505056fea26469706673582212202aaa29587592fba20decb2931cb47a46614f56b8eeb3a469cc5055cac60fab5164736f6c63430008110033",
  "linkReferences": {},
  "deployedLinkReferences": {}
}